{
  "_format": "hh-sol-artifact-1",
  "contractName": "Continuum",
  "sourceName": "contracts/Continuum.sol",
  "abi": [
    {
      "inputs": [
        {
          "internalType": "address",
          "name": "verifierAddress",
          "type": "address"
        }
      ],
      "stateMutability": "nonpayable",
      "type": "constructor"
    },
    {
      "anonymous": false,
      "inputs": [
        {
          "indexed": true,
          "internalType": "address",
          "name": "owner",
          "type": "address"
        },
        {
          "indexed": true,
          "internalType": "address",
          "name": "approved",
          "type": "address"
        },
        {
          "indexed": true,
          "internalType": "uint256",
          "name": "tokenId",
          "type": "uint256"
        }
      ],
      "name": "Approval",
      "type": "event"
    },
    {
      "anonymous": false,
      "inputs": [
        {
          "indexed": true,
          "internalType": "address",
          "name": "owner",
          "type": "address"
        },
        {
          "indexed": true,
          "internalType": "address",
          "name": "operator",
          "type": "address"
        },
        {
          "indexed": false,
          "internalType": "bool",
          "name": "approved",
          "type": "bool"
        }
      ],
      "name": "ApprovalForAll",
      "type": "event"
    },
    {
      "anonymous": false,
      "inputs": [
        {
          "indexed": false,
          "internalType": "uint256",
          "name": "tokenId",
          "type": "uint256"
        },
        {
          "indexed": false,
          "internalType": "address",
          "name": "to",
          "type": "address"
        }
      ],
      "name": "Minted",
      "type": "event"
    },
    {
      "anonymous": false,
      "inputs": [
        {
          "indexed": false,
          "internalType": "uint256",
          "name": "nullifierHash",
          "type": "uint256"
        }
      ],
      "name": "NullifierHashAdded",
      "type": "event"
    },
    {
      "anonymous": false,
      "inputs": [
        {
          "indexed": false,
          "internalType": "bytes32",
          "name": "signal",
          "type": "bytes32"
        }
      ],
      "name": "ProofVerified",
      "type": "event"
    },
    {
      "anonymous": false,
      "inputs": [
        {
          "indexed": true,
          "internalType": "address",
          "name": "from",
          "type": "address"
        },
        {
          "indexed": true,
          "internalType": "address",
          "name": "to",
          "type": "address"
        },
        {
          "indexed": true,
          "internalType": "uint256",
          "name": "tokenId",
          "type": "uint256"
        }
      ],
      "name": "Transfer",
      "type": "event"
    },
    {
      "inputs": [
        {
          "internalType": "address",
          "name": "to",
          "type": "address"
        },
        {
          "internalType": "uint256",
          "name": "tokenId",
          "type": "uint256"
        }
      ],
      "name": "approve",
      "outputs": [],
      "stateMutability": "nonpayable",
      "type": "function"
    },
    {
      "inputs": [
        {
          "internalType": "address",
          "name": "owner",
          "type": "address"
        }
      ],
      "name": "balanceOf",
      "outputs": [
        {
          "internalType": "uint256",
          "name": "",
          "type": "uint256"
        }
      ],
      "stateMutability": "view",
      "type": "function"
    },
    {
      "inputs": [
        {
          "internalType": "uint256",
          "name": "tokenId",
          "type": "uint256"
        }
      ],
      "name": "getApproved",
      "outputs": [
        {
          "internalType": "address",
          "name": "",
          "type": "address"
        }
      ],
      "stateMutability": "view",
      "type": "function"
    },
    {
      "inputs": [
        {
          "internalType": "address",
          "name": "owner",
          "type": "address"
        },
        {
          "internalType": "address",
          "name": "operator",
          "type": "address"
        }
      ],
      "name": "isApprovedForAll",
      "outputs": [
        {
          "internalType": "bool",
          "name": "",
          "type": "bool"
        }
      ],
      "stateMutability": "view",
      "type": "function"
    },
    {
      "inputs": [
        {
          "internalType": "uint256",
          "name": "root",
          "type": "uint256"
        },
        {
          "internalType": "uint256",
          "name": "nullifierHash",
          "type": "uint256"
        },
        {
          "internalType": "uint256",
          "name": "externalNullifier",
          "type": "uint256"
        },
        {
          "internalType": "uint256[8]",
          "name": "proof",
          "type": "uint256[8]"
        },
        {
          "internalType": "string",
          "name": "tokenURI",
          "type": "string"
        }
      ],
      "name": "mint",
      "outputs": [],
      "stateMutability": "nonpayable",
      "type": "function"
    },
    {
      "inputs": [],
      "name": "name",
      "outputs": [
        {
          "internalType": "string",
          "name": "",
          "type": "string"
        }
      ],
      "stateMutability": "view",
      "type": "function"
    },
    {
      "inputs": [
        {
          "internalType": "uint256",
          "name": "tokenId",
          "type": "uint256"
        }
      ],
      "name": "ownerOf",
      "outputs": [
        {
          "internalType": "address",
          "name": "",
          "type": "address"
        }
      ],
      "stateMutability": "view",
      "type": "function"
    },
    {
      "inputs": [
        {
          "internalType": "address",
          "name": "from",
          "type": "address"
        },
        {
          "internalType": "address",
          "name": "to",
          "type": "address"
        },
        {
          "internalType": "uint256",
          "name": "tokenId",
          "type": "uint256"
        }
      ],
      "name": "safeTransferFrom",
      "outputs": [],
      "stateMutability": "nonpayable",
      "type": "function"
    },
    {
      "inputs": [
        {
          "internalType": "address",
          "name": "from",
          "type": "address"
        },
        {
          "internalType": "address",
          "name": "to",
          "type": "address"
        },
        {
          "internalType": "uint256",
          "name": "tokenId",
          "type": "uint256"
        },
        {
          "internalType": "bytes",
          "name": "_data",
          "type": "bytes"
        }
      ],
      "name": "safeTransferFrom",
      "outputs": [],
      "stateMutability": "nonpayable",
      "type": "function"
    },
    {
      "inputs": [
        {
          "internalType": "address",
          "name": "operator",
          "type": "address"
        },
        {
          "internalType": "bool",
          "name": "approved",
          "type": "bool"
        }
      ],
      "name": "setApprovalForAll",
      "outputs": [],
      "stateMutability": "nonpayable",
      "type": "function"
    },
    {
      "inputs": [
        {
          "internalType": "bytes4",
          "name": "interfaceId",
          "type": "bytes4"
        }
      ],
      "name": "supportsInterface",
      "outputs": [
        {
          "internalType": "bool",
          "name": "",
          "type": "bool"
        }
      ],
      "stateMutability": "view",
      "type": "function"
    },
    {
      "inputs": [],
      "name": "symbol",
      "outputs": [
        {
          "internalType": "string",
          "name": "",
          "type": "string"
        }
      ],
      "stateMutability": "view",
      "type": "function"
    },
    {
      "inputs": [
        {
          "internalType": "uint256",
          "name": "tokenId",
          "type": "uint256"
        }
      ],
      "name": "tokenURI",
      "outputs": [
        {
          "internalType": "string",
          "name": "",
          "type": "string"
        }
      ],
      "stateMutability": "view",
      "type": "function"
    },
    {
      "inputs": [],
      "name": "totalSupply",
      "outputs": [
        {
          "internalType": "uint256",
          "name": "",
          "type": "uint256"
        }
      ],
      "stateMutability": "view",
      "type": "function"
    },
    {
      "inputs": [
        {
          "internalType": "address",
          "name": "from",
          "type": "address"
        },
        {
          "internalType": "address",
          "name": "to",
          "type": "address"
        },
        {
          "internalType": "uint256",
          "name": "tokenId",
          "type": "uint256"
        }
      ],
      "name": "transferFrom",
      "outputs": [],
      "stateMutability": "nonpayable",
      "type": "function"
    }
  ],
  "bytecode": "0x60806040523480156200001157600080fd5b506040516200371e3803806200371e8339818101604052810190620000379190620001e6565b6040518060400160405280600c81526020017f436f6e74696e75756d20763200000000000000000000000000000000000000008152506040518060400160405280600381526020017f434e5400000000000000000000000000000000000000000000000000000000008152508160019080519060200190620000bb9291906200011f565b508060029080519060200190620000d49291906200011f565b50505080600960006101000a81548173ffffffffffffffffffffffffffffffffffffffff021916908373ffffffffffffffffffffffffffffffffffffffff16021790555050620002c5565b8280546200012d9062000246565b90600052602060002090601f0160209004810192826200015157600085556200019d565b82601f106200016c57805160ff19168380011785556200019d565b828001600101855582156200019d579182015b828111156200019c5782518255916020019190600101906200017f565b5b509050620001ac9190620001b0565b5090565b5b80821115620001cb576000816000905550600101620001b1565b5090565b600081519050620001e081620002ab565b92915050565b600060208284031215620001f957600080fd5b60006200020984828501620001cf565b91505092915050565b60006200021f8262000226565b9050919050565b600073ffffffffffffffffffffffffffffffffffffffff82169050919050565b600060028204905060018216806200025f57607f821691505b602082108114156200027657620002756200027c565b5b50919050565b7f4e487b7100000000000000000000000000000000000000000000000000000000600052602260045260246000fd5b620002b68162000212565b8114620002c257600080fd5b50565b61344980620002d56000396000f3fe608060405234801561001057600080fd5b50600436106100f55760003560e01c80636352211e11610097578063b88d4fde11610066578063b88d4fde14610284578063c87b56dd146102a0578063de3c6fdf146102d0578063e985e9c5146102ec576100f5565b80636352211e146101ea57806370a082311461021a57806395d89b411461024a578063a22cb46514610268576100f5565b8063095ea7b3116100d3578063095ea7b31461017857806318160ddd1461019457806323b872dd146101b257806342842e0e146101ce576100f5565b806301ffc9a7146100fa57806306fdde031461012a578063081812fc14610148575b600080fd5b610114600480360381019061010f91906120c6565b61031c565b60405161012191906127a3565b60405180910390f35b6101326103fe565b60405161013f91906127d9565b60405180910390f35b610162600480360381019061015d9190612118565b610490565b60405161016f91906126f5565b60405180910390f35b610192600480360381019061018d919061208a565b610515565b005b61019c61062d565b6040516101a99190612a1b565b60405180910390f35b6101cc60048036038101906101c79190611f84565b61063e565b005b6101e860048036038101906101e39190611f84565b61069e565b005b61020460048036038101906101ff9190612118565b6106be565b60405161021191906126f5565b60405180910390f35b610234600480360381019061022f9190611f1f565b610770565b6040516102419190612a1b565b60405180910390f35b610252610828565b60405161025f91906127d9565b60405180910390f35b610282600480360381019061027d919061204e565b6108ba565b005b61029e60048036038101906102999190611fd3565b6108d0565b005b6102ba60048036038101906102b59190612118565b610932565b6040516102c791906127d9565b60405180910390f35b6102ea60048036038101906102e59190612141565b610a84565b005b61030660048036038101906103019190611f48565b610b8d565b60405161031391906127a3565b60405180910390f35b60007f80ac58cd000000000000000000000000000000000000000000000000000000007bffffffffffffffffffffffffffffffffffffffffffffffffffffffff1916827bffffffffffffffffffffffffffffffffffffffffffffffffffffffff191614806103e757507f5b5e139f000000000000000000000000000000000000000000000000000000007bffffffffffffffffffffffffffffffffffffffffffffffffffffffff1916827bffffffffffffffffffffffffffffffffffffffffffffffffffffffff1916145b806103f757506103f682610c21565b5b9050919050565b60606001805461040d90612d36565b80601f016020809104026020016040519081016040528092919081815260200182805461043990612d36565b80156104865780601f1061045b57610100808354040283529160200191610486565b820191906000526020600020905b81548152906001019060200180831161046957829003601f168201915b5050505050905090565b600061049b82610c8b565b6104da576040517f08c379a00000000000000000000000000000000000000000000000000000000081526004016104d19061299b565b60405180910390fd5b6005600083815260200190815260200160002060009054906101000a900473ffffffffffffffffffffffffffffffffffffffff169050919050565b6000610520826106be565b90508073ffffffffffffffffffffffffffffffffffffffff168373ffffffffffffffffffffffffffffffffffffffff161415610591576040517f08c379a0000000000000000000000000000000000000000000000000000000008152600401610588906129db565b60405180910390fd5b8073ffffffffffffffffffffffffffffffffffffffff166105b0610cf7565b73ffffffffffffffffffffffffffffffffffffffff1614806105df57506105de816105d9610cf7565b610b8d565b5b61061e576040517f08c379a0000000000000000000000000000000000000000000000000000000008152600401610615906128db565b60405180910390fd5b6106288383610cff565b505050565b60006106396008610db8565b905090565b61064f610649610cf7565b82610dc6565b61068e576040517f08c379a0000000000000000000000000000000000000000000000000000000008152600401610685906129fb565b60405180910390fd5b610699838383610ea4565b505050565b6106b9838383604051806020016040528060008152506108d0565b505050565b6000806003600084815260200190815260200160002060009054906101000a900473ffffffffffffffffffffffffffffffffffffffff169050600073ffffffffffffffffffffffffffffffffffffffff168173ffffffffffffffffffffffffffffffffffffffff161415610767576040517f08c379a000000000000000000000000000000000000000000000000000000000815260040161075e9061291b565b60405180910390fd5b80915050919050565b60008073ffffffffffffffffffffffffffffffffffffffff168273ffffffffffffffffffffffffffffffffffffffff1614156107e1576040517f08c379a00000000000000000000000000000000000000000000000000000000081526004016107d8906128fb565b60405180910390fd5b600460008373ffffffffffffffffffffffffffffffffffffffff1673ffffffffffffffffffffffffffffffffffffffff168152602001908152602001600020549050919050565b60606002805461083790612d36565b80601f016020809104026020016040519081016040528092919081815260200182805461086390612d36565b80156108b05780601f10610885576101008083540402835291602001916108b0565b820191906000526020600020905b81548152906001019060200180831161089357829003601f168201915b5050505050905090565b6108cc6108c5610cf7565b838361110b565b5050565b6108e16108db610cf7565b83610dc6565b610920576040517f08c379a0000000000000000000000000000000000000000000000000000000008152600401610917906129fb565b60405180910390fd5b61092c84848484611278565b50505050565b606061093d82610c8b565b61097c576040517f08c379a00000000000000000000000000000000000000000000000000000000081526004016109739061297b565b60405180910390fd5b600060076000848152602001908152602001600020805461099c90612d36565b80601f01602080910402602001604051908101604052809291908181526020018280546109c890612d36565b8015610a155780601f106109ea57610100808354040283529160200191610a15565b820191906000526020600020905b8154815290600101906020018083116109f857829003601f168201915b505050505090506000610a266112d4565b9050600081511415610a3c578192505050610a7f565b600082511115610a71578082604051602001610a599291906126d1565b60405160208183030381529060405292505050610a7f565b610a7a846112eb565b925050505b919050565b60007f636f6e74696e75756d00000000000000000000000000000000000000000000009050610ad98187878787600960009054906101000a900473ffffffffffffffffffffffffffffffffffffffff16611392565b610ae2856116eb565b7f543093db8d78fd8619586d3a0be12a5736836393feede0888f262888c81ce4c381604051610b1191906127be565b60405180910390a1610b2a33610b2561062d565b611719565b610b3b610b3561062d565b836118f3565b7fb9203d657e9c0ec8274c818292ab0f58b04e1970050716891770eb1bab5d655e610b6461062d565b33604051610b73929190612a36565b60405180910390a1610b856008611967565b505050505050565b6000600660008473ffffffffffffffffffffffffffffffffffffffff1673ffffffffffffffffffffffffffffffffffffffff16815260200190815260200160002060008373ffffffffffffffffffffffffffffffffffffffff1673ffffffffffffffffffffffffffffffffffffffff16815260200190815260200160002060009054906101000a900460ff16905092915050565b60007f01ffc9a7000000000000000000000000000000000000000000000000000000007bffffffffffffffffffffffffffffffffffffffffffffffffffffffff1916827bffffffffffffffffffffffffffffffffffffffffffffffffffffffff1916149050919050565b60008073ffffffffffffffffffffffffffffffffffffffff166003600084815260200190815260200160002060009054906101000a900473ffffffffffffffffffffffffffffffffffffffff1673ffffffffffffffffffffffffffffffffffffffff1614159050919050565b600033905090565b816005600083815260200190815260200160002060006101000a81548173ffffffffffffffffffffffffffffffffffffffff021916908373ffffffffffffffffffffffffffffffffffffffff160217905550808273ffffffffffffffffffffffffffffffffffffffff16610d72836106be565b73ffffffffffffffffffffffffffffffffffffffff167f8c5be1e5ebec7d5bd14f71427d1e84f3dd0314c0f7b2291e5b200ac8c7c3b92560405160405180910390a45050565b600081600001549050919050565b6000610dd182610c8b565b610e10576040517f08c379a0000000000000000000000000000000000000000000000000000000008152600401610e07906128bb565b60405180910390fd5b6000610e1b836106be565b90508073ffffffffffffffffffffffffffffffffffffffff168473ffffffffffffffffffffffffffffffffffffffff161480610e8a57508373ffffffffffffffffffffffffffffffffffffffff16610e7284610490565b73ffffffffffffffffffffffffffffffffffffffff16145b80610e9b5750610e9a8185610b8d565b5b91505092915050565b8273ffffffffffffffffffffffffffffffffffffffff16610ec4826106be565b73ffffffffffffffffffffffffffffffffffffffff1614610f1a576040517f08c379a0000000000000000000000000000000000000000000000000000000008152600401610f119061283b565b60405180910390fd5b600073ffffffffffffffffffffffffffffffffffffffff168273ffffffffffffffffffffffffffffffffffffffff161415610f8a576040517f08c379a0000000000000000000000000000000000000000000000000000000008152600401610f819061287b565b60405180910390fd5b610f9583838361197d565b610fa0600082610cff565b6001600460008573ffffffffffffffffffffffffffffffffffffffff1673ffffffffffffffffffffffffffffffffffffffff1681526020019081526020016000206000828254610ff09190612c42565b925050819055506001600460008473ffffffffffffffffffffffffffffffffffffffff1673ffffffffffffffffffffffffffffffffffffffff16815260200190815260200160002060008282546110479190612bbb565b92505081905550816003600083815260200190815260200160002060006101000a81548173ffffffffffffffffffffffffffffffffffffffff021916908373ffffffffffffffffffffffffffffffffffffffff160217905550808273ffffffffffffffffffffffffffffffffffffffff168473ffffffffffffffffffffffffffffffffffffffff167fddf252ad1be2c89b69c2b068fc378daa952ba7f163c4a11628f55a4df523b3ef60405160405180910390a4611106838383611982565b505050565b8173ffffffffffffffffffffffffffffffffffffffff168373ffffffffffffffffffffffffffffffffffffffff16141561117a576040517f08c379a00000000000000000000000000000000000000000000000000000000081526004016111719061289b565b60405180910390fd5b80600660008573ffffffffffffffffffffffffffffffffffffffff1673ffffffffffffffffffffffffffffffffffffffff16815260200190815260200160002060008473ffffffffffffffffffffffffffffffffffffffff1673ffffffffffffffffffffffffffffffffffffffff16815260200190815260200160002060006101000a81548160ff0219169083151502179055508173ffffffffffffffffffffffffffffffffffffffff168373ffffffffffffffffffffffffffffffffffffffff167f17307eab39ab6107e8899845ad3d59bd9653f200f220920489ca2b5937696c318360405161126b91906127a3565b60405180910390a3505050565b611283848484610ea4565b61128f84848484611987565b6112ce576040517f08c379a00000000000000000000000000000000000000000000000000000000081526004016112c59061281b565b60405180910390fd5b50505050565b606060405180602001604052806000815250905090565b60606112f682610c8b565b611335576040517f08c379a000000000000000000000000000000000000000000000000000000000815260040161132c906129bb565b60405180910390fd5b600061133f6112d4565b9050600081511161135f576040518060200160405280600081525061138a565b8061136984611b1e565b60405160200161137a9291906126d1565b6040516020818303038152906040525b915050919050565b60008085815260200190815260200160002060009054906101000a900460ff16156113f2576040517f08c379a00000000000000000000000000000000000000000000000000000000081526004016113e9906127fb565b60405180910390fd5b60006113fd87611ccb565b90508173ffffffffffffffffffffffffffffffffffffffff16635fe8c13b604051806040016040528086600060088110611460577f4e487b7100000000000000000000000000000000000000000000000000000000600052603260045260246000fd5b60200201358152602001866001600881106114a4577f4e487b7100000000000000000000000000000000000000000000000000000000600052603260045260246000fd5b602002013581525060405180604001604052806040518060400160405280896002600881106114fc577f4e487b7100000000000000000000000000000000000000000000000000000000600052603260045260246000fd5b6020020135815260200189600360088110611540577f4e487b7100000000000000000000000000000000000000000000000000000000600052603260045260246000fd5b60200201358152508152602001604051806040016040528089600460088110611592577f4e487b7100000000000000000000000000000000000000000000000000000000600052603260045260246000fd5b60200201358152602001896005600881106115d6577f4e487b7100000000000000000000000000000000000000000000000000000000600052603260045260246000fd5b6020020135815250815250604051806040016040528088600660088110611626577f4e487b7100000000000000000000000000000000000000000000000000000000600052603260045260246000fd5b602002013581526020018860076008811061166a577f4e487b7100000000000000000000000000000000000000000000000000000000600052603260045260246000fd5b602002013581525060405180608001604052808c81526020018b81526020018781526020018a8152506040518563ffffffff1660e01b81526004016116b2949392919061275c565b60006040518083038186803b1580156116ca57600080fd5b505afa1580156116de573d6000803e3d6000fd5b5050505050505050505050565b600160008083815260200190815260200160002060006101000a81548160ff02191690831515021790555050565b600073ffffffffffffffffffffffffffffffffffffffff168273ffffffffffffffffffffffffffffffffffffffff161415611789576040517f08c379a00000000000000000000000000000000000000000000000000000000081526004016117809061295b565b60405180910390fd5b61179281610c8b565b156117d2576040517f08c379a00000000000000000000000000000000000000000000000000000000081526004016117c99061285b565b60405180910390fd5b6117de6000838361197d565b6001600460008473ffffffffffffffffffffffffffffffffffffffff1673ffffffffffffffffffffffffffffffffffffffff168152602001908152602001600020600082825461182e9190612bbb565b92505081905550816003600083815260200190815260200160002060006101000a81548173ffffffffffffffffffffffffffffffffffffffff021916908373ffffffffffffffffffffffffffffffffffffffff160217905550808273ffffffffffffffffffffffffffffffffffffffff16600073ffffffffffffffffffffffffffffffffffffffff167fddf252ad1be2c89b69c2b068fc378daa952ba7f163c4a11628f55a4df523b3ef60405160405180910390a46118ef60008383611982565b5050565b6118fc82610c8b565b61193b576040517f08c379a00000000000000000000000000000000000000000000000000000000081526004016119329061293b565b60405180910390fd5b80600760008481526020019081526020016000209080519060200190611962929190611d25565b505050565b6001816000016000828254019250508190555050565b505050565b505050565b60006119a88473ffffffffffffffffffffffffffffffffffffffff16611d02565b15611b11578373ffffffffffffffffffffffffffffffffffffffff1663150b7a026119d1610cf7565b8786866040518563ffffffff1660e01b81526004016119f39493929190612710565b602060405180830381600087803b158015611a0d57600080fd5b505af1925050508015611a3e57506040513d601f19601f82011682018060405250810190611a3b91906120ef565b60015b611ac1573d8060008114611a6e576040519150601f19603f3d011682016040523d82523d6000602084013e611a73565b606091505b50600081511415611ab9576040517f08c379a0000000000000000000000000000000000000000000000000000000008152600401611ab09061281b565b60405180910390fd5b805181602001fd5b63150b7a0260e01b7bffffffffffffffffffffffffffffffffffffffffffffffffffffffff1916817bffffffffffffffffffffffffffffffffffffffffffffffffffffffff191614915050611b16565b600190505b949350505050565b60606000821415611b66576040518060400160405280600181526020017f30000000000000000000000000000000000000000000000000000000000000008152509050611cc6565b600082905060005b60008214611b98578080611b8190612d99565b915050600a82611b919190612c11565b9150611b6e565b60008167ffffffffffffffff811115611bda577f4e487b7100000000000000000000000000000000000000000000000000000000600052604160045260246000fd5b6040519080825280601f01601f191660200182016040528015611c0c5781602001600182028036833780820191505090505b5090505b60008514611cbf57600182611c259190612c42565b9150600a85611c349190612dec565b6030611c409190612bbb565b60f81b818381518110611c7c577f4e487b7100000000000000000000000000000000000000000000000000000000600052603260045260246000fd5b60200101907effffffffffffffffffffffffffffffffffffffffffffffffffffffffffffff1916908160001a905350600a85611cb89190612c11565b9450611c10565b8093505050505b919050565b6000600882604051602001611ce091906126b6565b6040516020818303038152906040528051906020012060001c901c9050919050565b6000808273ffffffffffffffffffffffffffffffffffffffff163b119050919050565b828054611d3190612d36565b90600052602060002090601f016020900481019282611d535760008555611d9a565b82601f10611d6c57805160ff1916838001178555611d9a565b82800160010185558215611d9a579182015b82811115611d99578251825591602001919060010190611d7e565b5b509050611da79190611dab565b5090565b5b80821115611dc4576000816000905550600101611dac565b5090565b6000611ddb611dd684612a84565b612a5f565b905082815260208101848484011115611df357600080fd5b611dfe848285612cf4565b509392505050565b6000611e19611e1484612ab5565b612a5f565b905082815260208101848484011115611e3157600080fd5b611e3c848285612cf4565b509392505050565b600081359050611e53816133b7565b92915050565b600081905082602060080282011115611e7157600080fd5b92915050565b600081359050611e86816133ce565b92915050565b600081359050611e9b816133e5565b92915050565b600081519050611eb0816133e5565b92915050565b600082601f830112611ec757600080fd5b8135611ed7848260208601611dc8565b91505092915050565b600082601f830112611ef157600080fd5b8135611f01848260208601611e06565b91505092915050565b600081359050611f19816133fc565b92915050565b600060208284031215611f3157600080fd5b6000611f3f84828501611e44565b91505092915050565b60008060408385031215611f5b57600080fd5b6000611f6985828601611e44565b9250506020611f7a85828601611e44565b9150509250929050565b600080600060608486031215611f9957600080fd5b6000611fa786828701611e44565b9350506020611fb886828701611e44565b9250506040611fc986828701611f0a565b9150509250925092565b60008060008060808587031215611fe957600080fd5b6000611ff787828801611e44565b945050602061200887828801611e44565b935050604061201987828801611f0a565b925050606085013567ffffffffffffffff81111561203657600080fd5b61204287828801611eb6565b91505092959194509250565b6000806040838503121561206157600080fd5b600061206f85828601611e44565b925050602061208085828601611e77565b9150509250929050565b6000806040838503121561209d57600080fd5b60006120ab85828601611e44565b92505060206120bc85828601611f0a565b9150509250929050565b6000602082840312156120d857600080fd5b60006120e684828501611e8c565b91505092915050565b60006020828403121561210157600080fd5b600061210f84828501611ea1565b91505092915050565b60006020828403121561212a57600080fd5b600061213884828501611f0a565b91505092915050565b6000806000806000610180868803121561215a57600080fd5b600061216888828901611f0a565b955050602061217988828901611f0a565b945050604061218a88828901611f0a565b935050606061219b88828901611e59565b92505061016086013567ffffffffffffffff8111156121b957600080fd5b6121c588828901611ee0565b9150509295509295909350565b60006121de8383612268565b60408301905092915050565b60006121f68383612698565b60208301905092915050565b61220b81612c76565b82525050565b61221a81612b04565b6122248184612b62565b925061222f82612ae6565b8060005b8381101561226057815161224787826121d2565b965061225283612b3b565b925050600181019050612233565b505050505050565b61227181612b0f565b61227b8184612b6d565b925061228682612af0565b8060005b838110156122b757815161229e87826121ea565b96506122a983612b48565b92505060018101905061228a565b505050505050565b6122c881612b0f565b6122d28184612b78565b92506122dd82612af0565b8060005b8381101561230e5781516122f587826121ea565b965061230083612b48565b9250506001810190506122e1565b505050505050565b61231f81612b1a565b6123298184612b83565b925061233482612afa565b8060005b8381101561236557815161234c87826121ea565b965061235783612b55565b925050600181019050612338565b505050505050565b61237681612c88565b82525050565b61238581612c94565b82525050565b61239c61239782612c94565b612de2565b82525050565b60006123ad82612b25565b6123b78185612b8e565b93506123c7818560208601612d03565b6123d081612ed9565b840191505092915050565b60006123e682612b30565b6123f08185612b9f565b9350612400818560208601612d03565b61240981612ed9565b840191505092915050565b600061241f82612b30565b6124298185612bb0565b9350612439818560208601612d03565b80840191505092915050565b6000612452603683612b9f565b915061245d82612eea565b604082019050919050565b6000612475603283612b9f565b915061248082612f39565b604082019050919050565b6000612498602583612b9f565b91506124a382612f88565b604082019050919050565b60006124bb601c83612b9f565b91506124c682612fd7565b602082019050919050565b60006124de602483612b9f565b91506124e982613000565b604082019050919050565b6000612501601983612b9f565b915061250c8261304f565b602082019050919050565b6000612524602c83612b9f565b915061252f82613078565b604082019050919050565b6000612547603883612b9f565b9150612552826130c7565b604082019050919050565b600061256a602a83612b9f565b915061257582613116565b604082019050919050565b600061258d602983612b9f565b915061259882613165565b604082019050919050565b60006125b0602e83612b9f565b91506125bb826131b4565b604082019050919050565b60006125d3602083612b9f565b91506125de82613203565b602082019050919050565b60006125f6603183612b9f565b91506126018261322c565b604082019050919050565b6000612619602c83612b9f565b91506126248261327b565b604082019050919050565b600061263c602f83612b9f565b9150612647826132ca565b604082019050919050565b600061265f602183612b9f565b915061266a82613319565b604082019050919050565b6000612682603183612b9f565b915061268d82613368565b604082019050919050565b6126a181612cea565b82525050565b6126b081612cea565b82525050565b60006126c2828461238b565b60208201915081905092915050565b60006126dd8285612414565b91506126e98284612414565b91508190509392505050565b600060208201905061270a6000830184612202565b92915050565b60006080820190506127256000830187612202565b6127326020830186612202565b61273f60408301856126a7565b818103606083015261275181846123a2565b905095945050505050565b60006101808201905061277260008301876122bf565b61277f6040830186612211565b61278c60c08301856122bf565b61279a610100830184612316565b95945050505050565b60006020820190506127b8600083018461236d565b92915050565b60006020820190506127d3600083018461237c565b92915050565b600060208201905081810360008301526127f381846123db565b905092915050565b6000602082019050818103600083015261281481612445565b9050919050565b6000602082019050818103600083015261283481612468565b9050919050565b600060208201905081810360008301526128548161248b565b9050919050565b60006020820190508181036000830152612874816124ae565b9050919050565b60006020820190508181036000830152612894816124d1565b9050919050565b600060208201905081810360008301526128b4816124f4565b9050919050565b600060208201905081810360008301526128d481612517565b9050919050565b600060208201905081810360008301526128f48161253a565b9050919050565b600060208201905081810360008301526129148161255d565b9050919050565b6000602082019050818103600083015261293481612580565b9050919050565b60006020820190508181036000830152612954816125a3565b9050919050565b60006020820190508181036000830152612974816125c6565b9050919050565b60006020820190508181036000830152612994816125e9565b9050919050565b600060208201905081810360008301526129b48161260c565b9050919050565b600060208201905081810360008301526129d48161262f565b9050919050565b600060208201905081810360008301526129f481612652565b9050919050565b60006020820190508181036000830152612a1481612675565b9050919050565b6000602082019050612a3060008301846126a7565b92915050565b6000604082019050612a4b60008301856126a7565b612a586020830184612202565b9392505050565b6000612a69612a7a565b9050612a758282612d68565b919050565b6000604051905090565b600067ffffffffffffffff821115612a9f57612a9e612eaa565b5b612aa882612ed9565b9050602081019050919050565b600067ffffffffffffffff821115612ad057612acf612eaa565b5b612ad982612ed9565b9050602081019050919050565b6000819050919050565b6000819050919050565b6000819050919050565b600060029050919050565b600060029050919050565b600060049050919050565b600081519050919050565b600081519050919050565b6000602082019050919050565b6000602082019050919050565b6000602082019050919050565b600081905092915050565b600081905092915050565b600081905092915050565b600081905092915050565b600082825260208201905092915050565b600082825260208201905092915050565b600081905092915050565b6000612bc682612cea565b9150612bd183612cea565b9250827fffffffffffffffffffffffffffffffffffffffffffffffffffffffffffffffff03821115612c0657612c05612e1d565b5b828201905092915050565b6000612c1c82612cea565b9150612c2783612cea565b925082612c3757612c36612e4c565b5b828204905092915050565b6000612c4d82612cea565b9150612c5883612cea565b925082821015612c6b57612c6a612e1d565b5b828203905092915050565b6000612c8182612cca565b9050919050565b60008115159050919050565b6000819050919050565b60007fffffffff0000000000000000000000000000000000000000000000000000000082169050919050565b600073ffffffffffffffffffffffffffffffffffffffff82169050919050565b6000819050919050565b82818337600083830152505050565b60005b83811015612d21578082015181840152602081019050612d06565b83811115612d30576000848401525b50505050565b60006002820490506001821680612d4e57607f821691505b60208210811415612d6257612d61612e7b565b5b50919050565b612d7182612ed9565b810181811067ffffffffffffffff82111715612d9057612d8f612eaa565b5b80604052505050565b6000612da482612cea565b91507fffffffffffffffffffffffffffffffffffffffffffffffffffffffffffffffff821415612dd757612dd6612e1d565b5b600182019050919050565b6000819050919050565b6000612df782612cea565b9150612e0283612cea565b925082612e1257612e11612e4c565b5b828206905092915050565b7f4e487b7100000000000000000000000000000000000000000000000000000000600052601160045260246000fd5b7f4e487b7100000000000000000000000000000000000000000000000000000000600052601260045260246000fd5b7f4e487b7100000000000000000000000000000000000000000000000000000000600052602260045260246000fd5b7f4e487b7100000000000000000000000000000000000000000000000000000000600052604160045260246000fd5b6000601f19601f8301169050919050565b7f53656d6170686f7265436f72653a20796f752063616e6e6f742075736520746860008201527f652073616d65206e756c6c696669657220747769636500000000000000000000602082015250565b7f4552433732313a207472616e7366657220746f206e6f6e20455243373231526560008201527f63656976657220696d706c656d656e7465720000000000000000000000000000602082015250565b7f4552433732313a207472616e736665722066726f6d20696e636f72726563742060008201527f6f776e6572000000000000000000000000000000000000000000000000000000602082015250565b7f4552433732313a20746f6b656e20616c7265616479206d696e74656400000000600082015250565b7f4552433732313a207472616e7366657220746f20746865207a65726f2061646460008201527f7265737300000000000000000000000000000000000000000000000000000000602082015250565b7f4552433732313a20617070726f766520746f2063616c6c657200000000000000600082015250565b7f4552433732313a206f70657261746f7220717565727920666f72206e6f6e657860008201527f697374656e7420746f6b656e0000000000000000000000000000000000000000602082015250565b7f4552433732313a20617070726f76652063616c6c6572206973206e6f74206f7760008201527f6e6572206e6f7220617070726f76656420666f7220616c6c0000000000000000602082015250565b7f4552433732313a2062616c616e636520717565727920666f7220746865207a6560008201527f726f206164647265737300000000000000000000000000000000000000000000602082015250565b7f4552433732313a206f776e657220717565727920666f72206e6f6e657869737460008201527f656e7420746f6b656e0000000000000000000000000000000000000000000000602082015250565b7f45524337323155524953746f726167653a2055524920736574206f66206e6f6e60008201527f6578697374656e7420746f6b656e000000000000000000000000000000000000602082015250565b7f4552433732313a206d696e7420746f20746865207a65726f2061646472657373600082015250565b7f45524337323155524953746f726167653a2055524920717565727920666f722060008201527f6e6f6e6578697374656e7420746f6b656e000000000000000000000000000000602082015250565b7f4552433732313a20617070726f76656420717565727920666f72206e6f6e657860008201527f697374656e7420746f6b656e0000000000000000000000000000000000000000602082015250565b7f4552433732314d657461646174613a2055524920717565727920666f72206e6f60008201527f6e6578697374656e7420746f6b656e0000000000000000000000000000000000602082015250565b7f4552433732313a20617070726f76616c20746f2063757272656e74206f776e6560008201527f7200000000000000000000000000000000000000000000000000000000000000602082015250565b7f4552433732313a207472616e736665722063616c6c6572206973206e6f74206f60008201527f776e6572206e6f7220617070726f766564000000000000000000000000000000602082015250565b6133c081612c76565b81146133cb57600080fd5b50565b6133d781612c88565b81146133e257600080fd5b50565b6133ee81612c9e565b81146133f957600080fd5b50565b61340581612cea565b811461341057600080fd5b5056fea26469706673582212209cf51bdd395d812c566e5c623ee92126b9658fce54e40ff310c2e4c9749473b664736f6c63430008040033",
  "linkReferences": {},
  "deployedLinkReferences": {}
}