{
  "_format": "hh-sol-artifact-1",
  "contractName": "Continuum",
  "sourceName": "contracts/Continuum.sol",
  "abi": [
    {
      "inputs": [
        {
          "internalType": "address",
          "name": "verifierAddress",
          "type": "address"
        }
      ],
      "stateMutability": "nonpayable",
      "type": "constructor"
    },
    {
      "anonymous": false,
      "inputs": [
        {
          "indexed": true,
          "internalType": "address",
          "name": "owner",
          "type": "address"
        },
        {
          "indexed": true,
          "internalType": "address",
          "name": "approved",
          "type": "address"
        },
        {
          "indexed": true,
          "internalType": "uint256",
          "name": "tokenId",
          "type": "uint256"
        }
      ],
      "name": "Approval",
      "type": "event"
    },
    {
      "anonymous": false,
      "inputs": [
        {
          "indexed": true,
          "internalType": "address",
          "name": "owner",
          "type": "address"
        },
        {
          "indexed": true,
          "internalType": "address",
          "name": "operator",
          "type": "address"
        },
        {
          "indexed": false,
          "internalType": "bool",
          "name": "approved",
          "type": "bool"
        }
      ],
      "name": "ApprovalForAll",
      "type": "event"
    },
    {
      "anonymous": false,
      "inputs": [
        {
          "indexed": false,
          "internalType": "uint256",
          "name": "tokenId",
          "type": "uint256"
        },
        {
          "indexed": false,
          "internalType": "address",
          "name": "to",
          "type": "address"
        }
      ],
      "name": "Minted",
      "type": "event"
    },
    {
      "anonymous": false,
      "inputs": [
        {
          "indexed": false,
          "internalType": "uint256",
          "name": "nullifierHash",
          "type": "uint256"
        }
      ],
      "name": "NullifierHashAdded",
      "type": "event"
    },
    {
      "anonymous": false,
      "inputs": [
        {
          "indexed": false,
          "internalType": "bytes32",
          "name": "signal",
          "type": "bytes32"
        }
      ],
      "name": "ProofVerified",
      "type": "event"
    },
    {
      "anonymous": false,
      "inputs": [
        {
          "indexed": true,
          "internalType": "address",
          "name": "from",
          "type": "address"
        },
        {
          "indexed": true,
          "internalType": "address",
          "name": "to",
          "type": "address"
        },
        {
          "indexed": true,
          "internalType": "uint256",
          "name": "tokenId",
          "type": "uint256"
        }
      ],
      "name": "Transfer",
      "type": "event"
    },
    {
      "inputs": [
        {
          "internalType": "address",
          "name": "to",
          "type": "address"
        },
        {
          "internalType": "uint256",
          "name": "tokenId",
          "type": "uint256"
        }
      ],
      "name": "approve",
      "outputs": [],
      "stateMutability": "nonpayable",
      "type": "function"
    },
    {
      "inputs": [
        {
          "internalType": "address",
          "name": "owner",
          "type": "address"
        }
      ],
      "name": "balanceOf",
      "outputs": [
        {
          "internalType": "uint256",
          "name": "",
          "type": "uint256"
        }
      ],
      "stateMutability": "view",
      "type": "function"
    },
    {
      "inputs": [
        {
          "internalType": "uint256",
          "name": "tokenId",
          "type": "uint256"
        }
      ],
      "name": "getApproved",
      "outputs": [
        {
          "internalType": "address",
          "name": "",
          "type": "address"
        }
      ],
      "stateMutability": "view",
      "type": "function"
    },
    {
      "inputs": [
        {
          "internalType": "address",
          "name": "owner",
          "type": "address"
        },
        {
          "internalType": "address",
          "name": "operator",
          "type": "address"
        }
      ],
      "name": "isApprovedForAll",
      "outputs": [
        {
          "internalType": "bool",
          "name": "",
          "type": "bool"
        }
      ],
      "stateMutability": "view",
      "type": "function"
    },
    {
      "inputs": [
        {
          "internalType": "uint256",
          "name": "root",
          "type": "uint256"
        },
        {
          "internalType": "uint256",
          "name": "nullifierHash",
          "type": "uint256"
        },
        {
          "internalType": "uint256",
          "name": "externalNullifier",
          "type": "uint256"
        },
        {
          "internalType": "uint256[8]",
          "name": "proof",
          "type": "uint256[8]"
        }
      ],
      "name": "mint",
      "outputs": [],
      "stateMutability": "nonpayable",
      "type": "function"
    },
    {
      "inputs": [],
      "name": "name",
      "outputs": [
        {
          "internalType": "string",
          "name": "",
          "type": "string"
        }
      ],
      "stateMutability": "view",
      "type": "function"
    },
    {
      "inputs": [
        {
          "internalType": "uint256",
          "name": "tokenId",
          "type": "uint256"
        }
      ],
      "name": "ownerOf",
      "outputs": [
        {
          "internalType": "address",
          "name": "",
          "type": "address"
        }
      ],
      "stateMutability": "view",
      "type": "function"
    },
    {
      "inputs": [
        {
          "internalType": "address",
          "name": "from",
          "type": "address"
        },
        {
          "internalType": "address",
          "name": "to",
          "type": "address"
        },
        {
          "internalType": "uint256",
          "name": "tokenId",
          "type": "uint256"
        }
      ],
      "name": "safeTransferFrom",
      "outputs": [],
      "stateMutability": "nonpayable",
      "type": "function"
    },
    {
      "inputs": [
        {
          "internalType": "address",
          "name": "from",
          "type": "address"
        },
        {
          "internalType": "address",
          "name": "to",
          "type": "address"
        },
        {
          "internalType": "uint256",
          "name": "tokenId",
          "type": "uint256"
        },
        {
          "internalType": "bytes",
          "name": "_data",
          "type": "bytes"
        }
      ],
      "name": "safeTransferFrom",
      "outputs": [],
      "stateMutability": "nonpayable",
      "type": "function"
    },
    {
      "inputs": [
        {
          "internalType": "address",
          "name": "operator",
          "type": "address"
        },
        {
          "internalType": "bool",
          "name": "approved",
          "type": "bool"
        }
      ],
      "name": "setApprovalForAll",
      "outputs": [],
      "stateMutability": "nonpayable",
      "type": "function"
    },
    {
      "inputs": [
        {
          "internalType": "bytes4",
          "name": "interfaceId",
          "type": "bytes4"
        }
      ],
      "name": "supportsInterface",
      "outputs": [
        {
          "internalType": "bool",
          "name": "",
          "type": "bool"
        }
      ],
      "stateMutability": "view",
      "type": "function"
    },
    {
      "inputs": [],
      "name": "symbol",
      "outputs": [
        {
          "internalType": "string",
          "name": "",
          "type": "string"
        }
      ],
      "stateMutability": "view",
      "type": "function"
    },
    {
      "inputs": [
        {
          "internalType": "uint256",
          "name": "tokenId",
          "type": "uint256"
        }
      ],
      "name": "tokenURI",
      "outputs": [
        {
          "internalType": "string",
          "name": "",
          "type": "string"
        }
      ],
      "stateMutability": "view",
      "type": "function"
    },
    {
      "inputs": [],
      "name": "totalSupply",
      "outputs": [
        {
          "internalType": "uint256",
          "name": "",
          "type": "uint256"
        }
      ],
      "stateMutability": "view",
      "type": "function"
    },
    {
      "inputs": [
        {
          "internalType": "address",
          "name": "from",
          "type": "address"
        },
        {
          "internalType": "address",
          "name": "to",
          "type": "address"
        },
        {
          "internalType": "uint256",
          "name": "tokenId",
          "type": "uint256"
        }
      ],
      "name": "transferFrom",
      "outputs": [],
      "stateMutability": "nonpayable",
      "type": "function"
    }
  ],
  "bytecode": "0x60806040523480156200001157600080fd5b50604051620032b9380380620032b98339818101604052810190620000379190620001e6565b6040518060400160405280600981526020017f436f6e74696e75756d00000000000000000000000000000000000000000000008152506040518060400160405280600381526020017f434e5400000000000000000000000000000000000000000000000000000000008152508160019080519060200190620000bb9291906200011f565b508060029080519060200190620000d49291906200011f565b50505080600860006101000a81548173ffffffffffffffffffffffffffffffffffffffff021916908373ffffffffffffffffffffffffffffffffffffffff16021790555050620002c5565b8280546200012d9062000246565b90600052602060002090601f0160209004810192826200015157600085556200019d565b82601f106200016c57805160ff19168380011785556200019d565b828001600101855582156200019d579182015b828111156200019c5782518255916020019190600101906200017f565b5b509050620001ac9190620001b0565b5090565b5b80821115620001cb576000816000905550600101620001b1565b5090565b600081519050620001e081620002ab565b92915050565b600060208284031215620001f957600080fd5b60006200020984828501620001cf565b91505092915050565b60006200021f8262000226565b9050919050565b600073ffffffffffffffffffffffffffffffffffffffff82169050919050565b600060028204905060018216806200025f57607f821691505b602082108114156200027657620002756200027c565b5b50919050565b7f4e487b7100000000000000000000000000000000000000000000000000000000600052602260045260246000fd5b620002b68162000212565b8114620002c257600080fd5b50565b612fe480620002d56000396000f3fe608060405234801561001057600080fd5b50600436106100f55760003560e01c80636352211e11610097578063b88d4fde11610066578063b88d4fde14610284578063b94f16c5146102a0578063c87b56dd146102bc578063e985e9c5146102ec576100f5565b80636352211e146101ea57806370a082311461021a57806395d89b411461024a578063a22cb46514610268576100f5565b8063095ea7b3116100d3578063095ea7b31461017857806318160ddd1461019457806323b872dd146101b257806342842e0e146101ce576100f5565b806301ffc9a7146100fa57806306fdde031461012a578063081812fc14610148575b600080fd5b610114600480360381019061010f9190611de3565b61031c565b604051610121919061244d565b60405180910390f35b6101326103fe565b60405161013f9190612483565b60405180910390f35b610162600480360381019061015d9190611e35565b610490565b60405161016f919061239f565b60405180910390f35b610192600480360381019061018d9190611da7565b610515565b005b61019c61062d565b6040516101a99190612685565b60405180910390f35b6101cc60048036038101906101c79190611ca1565b61063e565b005b6101e860048036038101906101e39190611ca1565b61069e565b005b61020460048036038101906101ff9190611e35565b6106be565b604051610211919061239f565b60405180910390f35b610234600480360381019061022f9190611c3c565b610770565b6040516102419190612685565b60405180910390f35b610252610828565b60405161025f9190612483565b60405180910390f35b610282600480360381019061027d9190611d6b565b6108ba565b005b61029e60048036038101906102999190611cf0565b6108d0565b005b6102ba60048036038101906102b59190611e5e565b610932565b005b6102d660048036038101906102d19190611e35565b610a29565b6040516102e39190612483565b60405180910390f35b61030660048036038101906103019190611c65565b610ad0565b604051610313919061244d565b60405180910390f35b60007f80ac58cd000000000000000000000000000000000000000000000000000000007bffffffffffffffffffffffffffffffffffffffffffffffffffffffff1916827bffffffffffffffffffffffffffffffffffffffffffffffffffffffff191614806103e757507f5b5e139f000000000000000000000000000000000000000000000000000000007bffffffffffffffffffffffffffffffffffffffffffffffffffffffff1916827bffffffffffffffffffffffffffffffffffffffffffffffffffffffff1916145b806103f757506103f682610b64565b5b9050919050565b60606001805461040d9061296f565b80601f01602080910402602001604051908101604052809291908181526020018280546104399061296f565b80156104865780601f1061045b57610100808354040283529160200191610486565b820191906000526020600020905b81548152906001019060200180831161046957829003601f168201915b5050505050905090565b600061049b82610bce565b6104da576040517f08c379a00000000000000000000000000000000000000000000000000000000081526004016104d190612605565b60405180910390fd5b6005600083815260200190815260200160002060009054906101000a900473ffffffffffffffffffffffffffffffffffffffff169050919050565b6000610520826106be565b90508073ffffffffffffffffffffffffffffffffffffffff168373ffffffffffffffffffffffffffffffffffffffff161415610591576040517f08c379a000000000000000000000000000000000000000000000000000000000815260040161058890612645565b60405180910390fd5b8073ffffffffffffffffffffffffffffffffffffffff166105b0610c3a565b73ffffffffffffffffffffffffffffffffffffffff1614806105df57506105de816105d9610c3a565b610ad0565b5b61061e576040517f08c379a000000000000000000000000000000000000000000000000000000000815260040161061590612585565b60405180910390fd5b6106288383610c42565b505050565b60006106396007610cfb565b905090565b61064f610649610c3a565b82610d09565b61068e576040517f08c379a000000000000000000000000000000000000000000000000000000000815260040161068590612665565b60405180910390fd5b610699838383610de7565b505050565b6106b9838383604051806020016040528060008152506108d0565b505050565b6000806003600084815260200190815260200160002060009054906101000a900473ffffffffffffffffffffffffffffffffffffffff169050600073ffffffffffffffffffffffffffffffffffffffff168173ffffffffffffffffffffffffffffffffffffffff161415610767576040517f08c379a000000000000000000000000000000000000000000000000000000000815260040161075e906125c5565b60405180910390fd5b80915050919050565b60008073ffffffffffffffffffffffffffffffffffffffff168273ffffffffffffffffffffffffffffffffffffffff1614156107e1576040517f08c379a00000000000000000000000000000000000000000000000000000000081526004016107d8906125a5565b60405180910390fd5b600460008373ffffffffffffffffffffffffffffffffffffffff1673ffffffffffffffffffffffffffffffffffffffff168152602001908152602001600020549050919050565b6060600280546108379061296f565b80601f01602080910402602001604051908101604052809291908181526020018280546108639061296f565b80156108b05780601f10610885576101008083540402835291602001916108b0565b820191906000526020600020905b81548152906001019060200180831161089357829003601f168201915b5050505050905090565b6108cc6108c5610c3a565b838361104e565b5050565b6108e16108db610c3a565b83610d09565b610920576040517f08c379a000000000000000000000000000000000000000000000000000000000815260040161091790612665565b60405180910390fd5b61092c848484846111bb565b50505050565b60007f636f6e74696e75756d000000000000000000000000000000000000000000000090506109878186868686600860009054906101000a900473ffffffffffffffffffffffffffffffffffffffff16611217565b61099084611570565b7f543093db8d78fd8619586d3a0be12a5736836393feede0888f262888c81ce4c3816040516109bf9190612468565b60405180910390a16109d8336109d361062d565b61159e565b7fb9203d657e9c0ec8274c818292ab0f58b04e1970050716891770eb1bab5d655e610a0161062d565b33604051610a109291906126a0565b60405180910390a1610a226007611778565b5050505050565b6060610a3482610bce565b610a73576040517f08c379a0000000000000000000000000000000000000000000000000000000008152600401610a6a90612625565b60405180910390fd5b6000610a7d61178e565b90506000815111610a9d5760405180602001604052806000815250610ac8565b80610aa7846117a5565b604051602001610ab892919061237b565b6040516020818303038152906040525b915050919050565b6000600660008473ffffffffffffffffffffffffffffffffffffffff1673ffffffffffffffffffffffffffffffffffffffff16815260200190815260200160002060008373ffffffffffffffffffffffffffffffffffffffff1673ffffffffffffffffffffffffffffffffffffffff16815260200190815260200160002060009054906101000a900460ff16905092915050565b60007f01ffc9a7000000000000000000000000000000000000000000000000000000007bffffffffffffffffffffffffffffffffffffffffffffffffffffffff1916827bffffffffffffffffffffffffffffffffffffffffffffffffffffffff1916149050919050565b60008073ffffffffffffffffffffffffffffffffffffffff166003600084815260200190815260200160002060009054906101000a900473ffffffffffffffffffffffffffffffffffffffff1673ffffffffffffffffffffffffffffffffffffffff1614159050919050565b600033905090565b816005600083815260200190815260200160002060006101000a81548173ffffffffffffffffffffffffffffffffffffffff021916908373ffffffffffffffffffffffffffffffffffffffff160217905550808273ffffffffffffffffffffffffffffffffffffffff16610cb5836106be565b73ffffffffffffffffffffffffffffffffffffffff167f8c5be1e5ebec7d5bd14f71427d1e84f3dd0314c0f7b2291e5b200ac8c7c3b92560405160405180910390a45050565b600081600001549050919050565b6000610d1482610bce565b610d53576040517f08c379a0000000000000000000000000000000000000000000000000000000008152600401610d4a90612565565b60405180910390fd5b6000610d5e836106be565b90508073ffffffffffffffffffffffffffffffffffffffff168473ffffffffffffffffffffffffffffffffffffffff161480610dcd57508373ffffffffffffffffffffffffffffffffffffffff16610db584610490565b73ffffffffffffffffffffffffffffffffffffffff16145b80610dde5750610ddd8185610ad0565b5b91505092915050565b8273ffffffffffffffffffffffffffffffffffffffff16610e07826106be565b73ffffffffffffffffffffffffffffffffffffffff1614610e5d576040517f08c379a0000000000000000000000000000000000000000000000000000000008152600401610e54906124e5565b60405180910390fd5b600073ffffffffffffffffffffffffffffffffffffffff168273ffffffffffffffffffffffffffffffffffffffff161415610ecd576040517f08c379a0000000000000000000000000000000000000000000000000000000008152600401610ec490612525565b60405180910390fd5b610ed8838383611952565b610ee3600082610c42565b6001600460008573ffffffffffffffffffffffffffffffffffffffff1673ffffffffffffffffffffffffffffffffffffffff1681526020019081526020016000206000828254610f33919061287b565b925050819055506001600460008473ffffffffffffffffffffffffffffffffffffffff1673ffffffffffffffffffffffffffffffffffffffff1681526020019081526020016000206000828254610f8a91906127f4565b92505081905550816003600083815260200190815260200160002060006101000a81548173ffffffffffffffffffffffffffffffffffffffff021916908373ffffffffffffffffffffffffffffffffffffffff160217905550808273ffffffffffffffffffffffffffffffffffffffff168473ffffffffffffffffffffffffffffffffffffffff167fddf252ad1be2c89b69c2b068fc378daa952ba7f163c4a11628f55a4df523b3ef60405160405180910390a4611049838383611957565b505050565b8173ffffffffffffffffffffffffffffffffffffffff168373ffffffffffffffffffffffffffffffffffffffff1614156110bd576040517f08c379a00000000000000000000000000000000000000000000000000000000081526004016110b490612545565b60405180910390fd5b80600660008573ffffffffffffffffffffffffffffffffffffffff1673ffffffffffffffffffffffffffffffffffffffff16815260200190815260200160002060008473ffffffffffffffffffffffffffffffffffffffff1673ffffffffffffffffffffffffffffffffffffffff16815260200190815260200160002060006101000a81548160ff0219169083151502179055508173ffffffffffffffffffffffffffffffffffffffff168373ffffffffffffffffffffffffffffffffffffffff167f17307eab39ab6107e8899845ad3d59bd9653f200f220920489ca2b5937696c31836040516111ae919061244d565b60405180910390a3505050565b6111c6848484610de7565b6111d28484848461195c565b611211576040517f08c379a0000000000000000000000000000000000000000000000000000000008152600401611208906124c5565b60405180910390fd5b50505050565b60008085815260200190815260200160002060009054906101000a900460ff1615611277576040517f08c379a000000000000000000000000000000000000000000000000000000000815260040161126e906124a5565b60405180910390fd5b600061128287611af3565b90508173ffffffffffffffffffffffffffffffffffffffff16635fe8c13b6040518060400160405280866000600881106112e5577f4e487b7100000000000000000000000000000000000000000000000000000000600052603260045260246000fd5b6020020135815260200186600160088110611329577f4e487b7100000000000000000000000000000000000000000000000000000000600052603260045260246000fd5b60200201358152506040518060400160405280604051806040016040528089600260088110611381577f4e487b7100000000000000000000000000000000000000000000000000000000600052603260045260246000fd5b60200201358152602001896003600881106113c5577f4e487b7100000000000000000000000000000000000000000000000000000000600052603260045260246000fd5b60200201358152508152602001604051806040016040528089600460088110611417577f4e487b7100000000000000000000000000000000000000000000000000000000600052603260045260246000fd5b602002013581526020018960056008811061145b577f4e487b7100000000000000000000000000000000000000000000000000000000600052603260045260246000fd5b60200201358152508152506040518060400160405280886006600881106114ab577f4e487b7100000000000000000000000000000000000000000000000000000000600052603260045260246000fd5b60200201358152602001886007600881106114ef577f4e487b7100000000000000000000000000000000000000000000000000000000600052603260045260246000fd5b602002013581525060405180608001604052808c81526020018b81526020018781526020018a8152506040518563ffffffff1660e01b81526004016115379493929190612406565b60006040518083038186803b15801561154f57600080fd5b505afa158015611563573d6000803e3d6000fd5b5050505050505050505050565b600160008083815260200190815260200160002060006101000a81548160ff02191690831515021790555050565b600073ffffffffffffffffffffffffffffffffffffffff168273ffffffffffffffffffffffffffffffffffffffff16141561160e576040517f08c379a0000000000000000000000000000000000000000000000000000000008152600401611605906125e5565b60405180910390fd5b61161781610bce565b15611657576040517f08c379a000000000000000000000000000000000000000000000000000000000815260040161164e90612505565b60405180910390fd5b61166360008383611952565b6001600460008473ffffffffffffffffffffffffffffffffffffffff1673ffffffffffffffffffffffffffffffffffffffff16815260200190815260200160002060008282546116b391906127f4565b92505081905550816003600083815260200190815260200160002060006101000a81548173ffffffffffffffffffffffffffffffffffffffff021916908373ffffffffffffffffffffffffffffffffffffffff160217905550808273ffffffffffffffffffffffffffffffffffffffff16600073ffffffffffffffffffffffffffffffffffffffff167fddf252ad1be2c89b69c2b068fc378daa952ba7f163c4a11628f55a4df523b3ef60405160405180910390a461177460008383611957565b5050565b6001816000016000828254019250508190555050565b606060405180602001604052806000815250905090565b606060008214156117ed576040518060400160405280600181526020017f3000000000000000000000000000000000000000000000000000000000000000815250905061194d565b600082905060005b6000821461181f578080611808906129d2565b915050600a82611818919061284a565b91506117f5565b60008167ffffffffffffffff811115611861577f4e487b7100000000000000000000000000000000000000000000000000000000600052604160045260246000fd5b6040519080825280601f01601f1916602001820160405280156118935781602001600182028036833780820191505090505b5090505b60008514611946576001826118ac919061287b565b9150600a856118bb9190612a25565b60306118c791906127f4565b60f81b818381518110611903577f4e487b7100000000000000000000000000000000000000000000000000000000600052603260045260246000fd5b60200101907effffffffffffffffffffffffffffffffffffffffffffffffffffffffffffff1916908160001a905350600a8561193f919061284a565b9450611897565b8093505050505b919050565b505050565b505050565b600061197d8473ffffffffffffffffffffffffffffffffffffffff16611b2a565b15611ae6578373ffffffffffffffffffffffffffffffffffffffff1663150b7a026119a6610c3a565b8786866040518563ffffffff1660e01b81526004016119c894939291906123ba565b602060405180830381600087803b1580156119e257600080fd5b505af1925050508015611a1357506040513d601f19601f82011682018060405250810190611a109190611e0c565b60015b611a96573d8060008114611a43576040519150601f19603f3d011682016040523d82523d6000602084013e611a48565b606091505b50600081511415611a8e576040517f08c379a0000000000000000000000000000000000000000000000000000000008152600401611a85906124c5565b60405180910390fd5b805181602001fd5b63150b7a0260e01b7bffffffffffffffffffffffffffffffffffffffffffffffffffffffff1916817bffffffffffffffffffffffffffffffffffffffffffffffffffffffff191614915050611aeb565b600190505b949350505050565b6000600882604051602001611b089190612360565b6040516020818303038152906040528051906020012060001c901c9050919050565b6000808273ffffffffffffffffffffffffffffffffffffffff163b119050919050565b6000611b60611b5b846126ee565b6126c9565b905082815260208101848484011115611b7857600080fd5b611b8384828561292d565b509392505050565b600081359050611b9a81612f52565b92915050565b600081905082602060080282011115611bb857600080fd5b92915050565b600081359050611bcd81612f69565b92915050565b600081359050611be281612f80565b92915050565b600081519050611bf781612f80565b92915050565b600082601f830112611c0e57600080fd5b8135611c1e848260208601611b4d565b91505092915050565b600081359050611c3681612f97565b92915050565b600060208284031215611c4e57600080fd5b6000611c5c84828501611b8b565b91505092915050565b60008060408385031215611c7857600080fd5b6000611c8685828601611b8b565b9250506020611c9785828601611b8b565b9150509250929050565b600080600060608486031215611cb657600080fd5b6000611cc486828701611b8b565b9350506020611cd586828701611b8b565b9250506040611ce686828701611c27565b9150509250925092565b60008060008060808587031215611d0657600080fd5b6000611d1487828801611b8b565b9450506020611d2587828801611b8b565b9350506040611d3687828801611c27565b925050606085013567ffffffffffffffff811115611d5357600080fd5b611d5f87828801611bfd565b91505092959194509250565b60008060408385031215611d7e57600080fd5b6000611d8c85828601611b8b565b9250506020611d9d85828601611bbe565b9150509250929050565b60008060408385031215611dba57600080fd5b6000611dc885828601611b8b565b9250506020611dd985828601611c27565b9150509250929050565b600060208284031215611df557600080fd5b6000611e0384828501611bd3565b91505092915050565b600060208284031215611e1e57600080fd5b6000611e2c84828501611be8565b91505092915050565b600060208284031215611e4757600080fd5b6000611e5584828501611c27565b91505092915050565b6000806000806101608587031215611e7557600080fd5b6000611e8387828801611c27565b9450506020611e9487828801611c27565b9350506040611ea587828801611c27565b9250506060611eb687828801611ba0565b91505092959194509250565b6000611ece8383611f58565b60408301905092915050565b6000611ee68383612342565b60208301905092915050565b611efb816128af565b82525050565b611f0a8161273d565b611f14818461279b565b9250611f1f8261271f565b8060005b83811015611f50578151611f378782611ec2565b9650611f4283612774565b925050600181019050611f23565b505050505050565b611f6181612748565b611f6b81846127a6565b9250611f7682612729565b8060005b83811015611fa7578151611f8e8782611eda565b9650611f9983612781565b925050600181019050611f7a565b505050505050565b611fb881612748565b611fc281846127b1565b9250611fcd82612729565b8060005b83811015611ffe578151611fe58782611eda565b9650611ff083612781565b925050600181019050611fd1565b505050505050565b61200f81612753565b61201981846127bc565b925061202482612733565b8060005b8381101561205557815161203c8782611eda565b96506120478361278e565b925050600181019050612028565b505050505050565b612066816128c1565b82525050565b612075816128cd565b82525050565b61208c612087826128cd565b612a1b565b82525050565b600061209d8261275e565b6120a781856127c7565b93506120b781856020860161293c565b6120c081612b12565b840191505092915050565b60006120d682612769565b6120e081856127d8565b93506120f081856020860161293c565b6120f981612b12565b840191505092915050565b600061210f82612769565b61211981856127e9565b935061212981856020860161293c565b80840191505092915050565b60006121426036836127d8565b915061214d82612b23565b604082019050919050565b60006121656032836127d8565b915061217082612b72565b604082019050919050565b60006121886025836127d8565b915061219382612bc1565b604082019050919050565b60006121ab601c836127d8565b91506121b682612c10565b602082019050919050565b60006121ce6024836127d8565b91506121d982612c39565b604082019050919050565b60006121f16019836127d8565b91506121fc82612c88565b602082019050919050565b6000612214602c836127d8565b915061221f82612cb1565b604082019050919050565b60006122376038836127d8565b915061224282612d00565b604082019050919050565b600061225a602a836127d8565b915061226582612d4f565b604082019050919050565b600061227d6029836127d8565b915061228882612d9e565b604082019050919050565b60006122a06020836127d8565b91506122ab82612ded565b602082019050919050565b60006122c3602c836127d8565b91506122ce82612e16565b604082019050919050565b60006122e6602f836127d8565b91506122f182612e65565b604082019050919050565b60006123096021836127d8565b915061231482612eb4565b604082019050919050565b600061232c6031836127d8565b915061233782612f03565b604082019050919050565b61234b81612923565b82525050565b61235a81612923565b82525050565b600061236c828461207b565b60208201915081905092915050565b60006123878285612104565b91506123938284612104565b91508190509392505050565b60006020820190506123b46000830184611ef2565b92915050565b60006080820190506123cf6000830187611ef2565b6123dc6020830186611ef2565b6123e96040830185612351565b81810360608301526123fb8184612092565b905095945050505050565b60006101808201905061241c6000830187611faf565b6124296040830186611f01565b61243660c0830185611faf565b612444610100830184612006565b95945050505050565b6000602082019050612462600083018461205d565b92915050565b600060208201905061247d600083018461206c565b92915050565b6000602082019050818103600083015261249d81846120cb565b905092915050565b600060208201905081810360008301526124be81612135565b9050919050565b600060208201905081810360008301526124de81612158565b9050919050565b600060208201905081810360008301526124fe8161217b565b9050919050565b6000602082019050818103600083015261251e8161219e565b9050919050565b6000602082019050818103600083015261253e816121c1565b9050919050565b6000602082019050818103600083015261255e816121e4565b9050919050565b6000602082019050818103600083015261257e81612207565b9050919050565b6000602082019050818103600083015261259e8161222a565b9050919050565b600060208201905081810360008301526125be8161224d565b9050919050565b600060208201905081810360008301526125de81612270565b9050919050565b600060208201905081810360008301526125fe81612293565b9050919050565b6000602082019050818103600083015261261e816122b6565b9050919050565b6000602082019050818103600083015261263e816122d9565b9050919050565b6000602082019050818103600083015261265e816122fc565b9050919050565b6000602082019050818103600083015261267e8161231f565b9050919050565b600060208201905061269a6000830184612351565b92915050565b60006040820190506126b56000830185612351565b6126c26020830184611ef2565b9392505050565b60006126d36126e4565b90506126df82826129a1565b919050565b6000604051905090565b600067ffffffffffffffff82111561270957612708612ae3565b5b61271282612b12565b9050602081019050919050565b6000819050919050565b6000819050919050565b6000819050919050565b600060029050919050565b600060029050919050565b600060049050919050565b600081519050919050565b600081519050919050565b6000602082019050919050565b6000602082019050919050565b6000602082019050919050565b600081905092915050565b600081905092915050565b600081905092915050565b600081905092915050565b600082825260208201905092915050565b600082825260208201905092915050565b600081905092915050565b60006127ff82612923565b915061280a83612923565b9250827fffffffffffffffffffffffffffffffffffffffffffffffffffffffffffffffff0382111561283f5761283e612a56565b5b828201905092915050565b600061285582612923565b915061286083612923565b9250826128705761286f612a85565b5b828204905092915050565b600061288682612923565b915061289183612923565b9250828210156128a4576128a3612a56565b5b828203905092915050565b60006128ba82612903565b9050919050565b60008115159050919050565b6000819050919050565b60007fffffffff0000000000000000000000000000000000000000000000000000000082169050919050565b600073ffffffffffffffffffffffffffffffffffffffff82169050919050565b6000819050919050565b82818337600083830152505050565b60005b8381101561295a57808201518184015260208101905061293f565b83811115612969576000848401525b50505050565b6000600282049050600182168061298757607f821691505b6020821081141561299b5761299a612ab4565b5b50919050565b6129aa82612b12565b810181811067ffffffffffffffff821117156129c9576129c8612ae3565b5b80604052505050565b60006129dd82612923565b91507fffffffffffffffffffffffffffffffffffffffffffffffffffffffffffffffff821415612a1057612a0f612a56565b5b600182019050919050565b6000819050919050565b6000612a3082612923565b9150612a3b83612923565b925082612a4b57612a4a612a85565b5b828206905092915050565b7f4e487b7100000000000000000000000000000000000000000000000000000000600052601160045260246000fd5b7f4e487b7100000000000000000000000000000000000000000000000000000000600052601260045260246000fd5b7f4e487b7100000000000000000000000000000000000000000000000000000000600052602260045260246000fd5b7f4e487b7100000000000000000000000000000000000000000000000000000000600052604160045260246000fd5b6000601f19601f8301169050919050565b7f53656d6170686f7265436f72653a20796f752063616e6e6f742075736520746860008201527f652073616d65206e756c6c696669657220747769636500000000000000000000602082015250565b7f4552433732313a207472616e7366657220746f206e6f6e20455243373231526560008201527f63656976657220696d706c656d656e7465720000000000000000000000000000602082015250565b7f4552433732313a207472616e736665722066726f6d20696e636f72726563742060008201527f6f776e6572000000000000000000000000000000000000000000000000000000602082015250565b7f4552433732313a20746f6b656e20616c7265616479206d696e74656400000000600082015250565b7f4552433732313a207472616e7366657220746f20746865207a65726f2061646460008201527f7265737300000000000000000000000000000000000000000000000000000000602082015250565b7f4552433732313a20617070726f766520746f2063616c6c657200000000000000600082015250565b7f4552433732313a206f70657261746f7220717565727920666f72206e6f6e657860008201527f697374656e7420746f6b656e0000000000000000000000000000000000000000602082015250565b7f4552433732313a20617070726f76652063616c6c6572206973206e6f74206f7760008201527f6e6572206e6f7220617070726f76656420666f7220616c6c0000000000000000602082015250565b7f4552433732313a2062616c616e636520717565727920666f7220746865207a6560008201527f726f206164647265737300000000000000000000000000000000000000000000602082015250565b7f4552433732313a206f776e657220717565727920666f72206e6f6e657869737460008201527f656e7420746f6b656e0000000000000000000000000000000000000000000000602082015250565b7f4552433732313a206d696e7420746f20746865207a65726f2061646472657373600082015250565b7f4552433732313a20617070726f76656420717565727920666f72206e6f6e657860008201527f697374656e7420746f6b656e0000000000000000000000000000000000000000602082015250565b7f4552433732314d657461646174613a2055524920717565727920666f72206e6f60008201527f6e6578697374656e7420746f6b656e0000000000000000000000000000000000602082015250565b7f4552433732313a20617070726f76616c20746f2063757272656e74206f776e6560008201527f7200000000000000000000000000000000000000000000000000000000000000602082015250565b7f4552433732313a207472616e736665722063616c6c6572206973206e6f74206f60008201527f776e6572206e6f7220617070726f766564000000000000000000000000000000602082015250565b612f5b816128af565b8114612f6657600080fd5b50565b612f72816128c1565b8114612f7d57600080fd5b50565b612f89816128d7565b8114612f9457600080fd5b50565b612fa081612923565b8114612fab57600080fd5b5056fea26469706673582212203553be09f7fbc4874cfc6ad12eb831137cf8564105f0af66390e68e4f807f31664736f6c63430008040033",
  "linkReferences": {},
  "deployedLinkReferences": {}
}